{
  "_format": "hh-sol-artifact-1",
  "contractName": "Sale",
  "sourceName": "contracts/Sale.sol",
  "abi": [
    {
      "inputs": [
        {
          "internalType": "uint256",
          "name": "_rate",
          "type": "uint256"
        },
        {
          "internalType": "address payable",
          "name": "_wallet",
          "type": "address"
        },
        {
          "internalType": "contract IERC20",
          "name": "_token",
          "type": "address"
        }
      ],
      "stateMutability": "nonpayable",
      "type": "constructor"
    },
    {
      "anonymous": false,
      "inputs": [
        {
          "indexed": true,
          "internalType": "address",
          "name": "previousOwner",
          "type": "address"
        },
        {
          "indexed": true,
          "internalType": "address",
          "name": "newOwner",
          "type": "address"
        }
      ],
      "name": "OwnershipTransferred",
      "type": "event"
    },
    {
      "anonymous": false,
      "inputs": [
        {
          "indexed": true,
          "internalType": "address",
          "name": "purchaser",
          "type": "address"
        },
        {
          "indexed": true,
          "internalType": "address",
          "name": "beneficiary",
          "type": "address"
        },
        {
          "indexed": false,
          "internalType": "uint256",
          "name": "value",
          "type": "uint256"
        },
        {
          "indexed": false,
          "internalType": "uint256",
          "name": "amount",
          "type": "uint256"
        }
      ],
      "name": "TokenPurchase",
      "type": "event"
    },
    {
      "stateMutability": "payable",
      "type": "fallback"
    },
    {
      "inputs": [
        {
          "internalType": "address",
          "name": "_beneficiary",
          "type": "address"
        }
      ],
      "name": "buyTokens",
      "outputs": [],
      "stateMutability": "payable",
      "type": "function"
    },
    {
      "inputs": [],
      "name": "owner",
      "outputs": [
        {
          "internalType": "address",
          "name": "",
          "type": "address"
        }
      ],
      "stateMutability": "view",
      "type": "function"
    },
    {
      "inputs": [],
      "name": "rate",
      "outputs": [
        {
          "internalType": "uint256",
          "name": "",
          "type": "uint256"
        }
      ],
      "stateMutability": "view",
      "type": "function"
    },
    {
      "inputs": [],
      "name": "sendTokensBack",
      "outputs": [],
      "stateMutability": "nonpayable",
      "type": "function"
    },
    {
      "inputs": [],
      "name": "token",
      "outputs": [
        {
          "internalType": "contract IERC20",
          "name": "",
          "type": "address"
        }
      ],
      "stateMutability": "view",
      "type": "function"
    },
    {
      "inputs": [
        {
          "internalType": "address",
          "name": "newOwner",
          "type": "address"
        }
      ],
      "name": "transferOwnership",
      "outputs": [],
      "stateMutability": "nonpayable",
      "type": "function"
    },
    {
      "inputs": [],
      "name": "wallet",
      "outputs": [
        {
          "internalType": "address payable",
          "name": "",
          "type": "address"
        }
      ],
      "stateMutability": "view",
      "type": "function"
    },
    {
      "inputs": [],
      "name": "weiRaised",
      "outputs": [
        {
          "internalType": "uint256",
          "name": "",
          "type": "uint256"
        }
      ],
      "stateMutability": "view",
      "type": "function"
    },
    {
      "inputs": [
        {
          "internalType": "address",
          "name": "withdrawer",
          "type": "address"
        }
      ],
      "name": "withdraw",
      "outputs": [],
      "stateMutability": "nonpayable",
      "type": "function"
    },
    {
      "stateMutability": "payable",
      "type": "receive"
    }
  ],
  "bytecode": "0x608060405234801561001057600080fd5b50604051610b13380380610b1383398101604081905261002f916100c7565b600080546001600160a01b031916339081178255604051909182917f8be0079c531659141344cd1fd0a4f28419497f9722a3daafe3b4186f6b6457e0908290a3506000831161007d57600080fd5b6001600160a01b03821661009057600080fd5b600392909255600280546001600160a01b039283166001600160a01b03199182161790915560018054929093169116179055610121565b6000806000606084860312156100db578283fd5b8351925060208401516100ed81610109565b60408501519092506100fe81610109565b809150509250925092565b6001600160a01b038116811461011e57600080fd5b50565b6109e3806101306000396000f3fe60806040526004361061008a5760003560e01c80638da5cb5b116100595780638da5cb5b1461013a578063e097e7b914610158578063ec8ac4d81461016d578063f2fde38b14610180578063fc0c546a146101a05761009a565b80632c4e722e146100a35780634042b66f146100cc57806351cff8d9146100e2578063521eb273146101025761009a565b3661009a57610098336101c0565b005b610098336101c0565b3480156100af57600080fd5b506100b960035481565b6040519081526020015b60405180910390f35b3480156100d857600080fd5b506100b960045481565b3480156100ee57600080fd5b506100986100fd36600461088e565b610271565b34801561010e57600080fd5b50600254610122906001600160a01b031681565b6040516001600160a01b0390911681526020016100c3565b34801561014657600080fd5b506000546001600160a01b0316610122565b34801561016457600080fd5b506100986102f3565b61009861017b36600461088e565b6101c0565b34801561018c57600080fd5b5061009861019b36600461088e565b61045e565b3480156101ac57600080fd5b50600154610122906001600160a01b031681565b346101cb8282610578565b60006101d68261064f565b905060006101e582600261066c565b6001600160a01b038516600090815260056020526040902081905560045490915061021090846106b5565b60045561021d8482610714565b60408051848152602081018390526001600160a01b0386169133917f623b3804fa71d67900d064613da8f94b9617215ee90799290593e1745087ad18910160405180910390a361026b61079f565b50505050565b6001600160a01b0381166102cc5760405162461bcd60e51b815260206004820181905260248201527f4945524332303a205472616e7366657220746f207a65726f206164647265737360448201526064015b60405180910390fd5b6001600160a01b0381166000908152600560205260409020546102ef8282610714565b5050565b6000546001600160a01b0316331461034d5760405162461bcd60e51b815260206004820181905260248201527f4f776e61626c653a2063616c6c6572206973206e6f7420746865206f776e657260448201526064016102c3565b6001546040516370a0823160e01b815230600482018190526001600160a01b03909216916323b872dd91339084906370a082319060240160206040518083038186803b15801561039c57600080fd5b505afa1580156103b0573d6000803e3d6000fd5b505050506040513d601f19601f820116820180604052508101906103d491906108d5565b6040516001600160e01b031960e086901b1681526001600160a01b0393841660048201529290911660248301526044820152606401602060405180830381600087803b15801561042357600080fd5b505af1158015610437573d6000803e3d6000fd5b505050506040513d601f19601f8201168201806040525081019061045b91906108b5565b50565b6000546001600160a01b031633146104b85760405162461bcd60e51b815260206004820181905260248201527f4f776e61626c653a2063616c6c6572206973206e6f7420746865206f776e657260448201526064016102c3565b6001600160a01b03811661051d5760405162461bcd60e51b815260206004820152602660248201527f4f776e61626c653a206e6577206f776e657220697320746865207a65726f206160448201526564647265737360d01b60648201526084016102c3565b600080546040516001600160a01b03808516939216917f8be0079c531659141344cd1fd0a4f28419497f9722a3daafe3b4186f6b6457e091a3600080546001600160a01b0319166001600160a01b0392909216919091179055565b6001546040516370a0823160e01b81523060048201526000916001600160a01b0316906370a082319060240160206040518083038186803b1580156105bc57600080fd5b505afa1580156105d0573d6000803e3d6000fd5b505050506040513d601f19601f820116820180604052508101906105f491906108d5565b116106325760405162461bcd60e51b815260206004820152600e60248201526d139bc81d1bdad95b9cc81b19599d60921b60448201526064016102c3565b6001600160a01b03821661064557600080fd5b806102ef57600080fd5b6000610666600354836107d890919063ffffffff16565b92915050565b60006106ae83836040518060400160405280601a81526020017f536166654d6174683a206469766973696f6e206279207a65726f000000000000815250610857565b9392505050565b6000806106c28385610940565b9050838110156106ae5760405162461bcd60e51b815260206004820152601b60248201527f536166654d6174683a206164646974696f6e206f766572666c6f77000000000060448201526064016102c3565b60015460405163a9059cbb60e01b81526001600160a01b038481166004830152602482018490529091169063a9059cbb90604401602060405180830381600087803b15801561076257600080fd5b505af1158015610776573d6000803e3d6000fd5b505050506040513d601f19601f8201168201806040525081019061079a91906108b5565b505050565b6002546040516001600160a01b03909116903480156108fc02916000818181858888f1935050505015801561045b573d6000803e3d6000fd5b6000826107e757506000610666565b60006107f38385610978565b9050826108008583610958565b146106ae5760405162461bcd60e51b815260206004820152602160248201527f536166654d6174683a206d756c7469706c69636174696f6e206f766572666c6f6044820152607760f81b60648201526084016102c3565b600081836108785760405162461bcd60e51b81526004016102c391906108ed565b5060006108858486610958565b95945050505050565b60006020828403121561089f578081fd5b81356001600160a01b03811681146106ae578182fd5b6000602082840312156108c6578081fd5b815180151581146106ae578182fd5b6000602082840312156108e6578081fd5b5051919050565b6000602080835283518082850152825b81811015610919578581018301518582016040015282016108fd565b8181111561092a5783604083870101525b50601f01601f1916929092016040019392505050565b6000821982111561095357610953610997565b500190565b60008261097357634e487b7160e01b81526012600452602481fd5b500490565b600081600019048311821515161561099257610992610997565b500290565b634e487b7160e01b600052601160045260246000fdfea26469706673582212207f247bb24fe75adf866349b7a7ddd8eba68c25697a134f841deb49addd69f6da64736f6c63430008020033",
  "linkReferences": {},
  "deployedLinkReferences": {}
}